{
  "_format": "hh-sol-artifact-1",
  "contractName": "InsuranceRegistry",
  "sourceName": "contracts/InsuranceRegistry.sol",
  "abi": [
    {
      "anonymous": false,
      "inputs": [
        {
          "indexed": true,
          "internalType": "uint256",
          "name": "claimId",
          "type": "uint256"
        },
        {
          "indexed": true,
          "internalType": "uint256",
          "name": "policyId",
          "type": "uint256"
        },
        {
          "indexed": false,
          "internalType": "string",
          "name": "status",
          "type": "string"
        },
        {
          "indexed": false,
          "internalType": "uint256",
          "name": "timestamp",
          "type": "uint256"
        }
      ],
      "name": "ClaimProcessed",
      "type": "event"
    },
    {
      "anonymous": false,
      "inputs": [
        {
          "indexed": true,
          "internalType": "uint256",
          "name": "claimId",
          "type": "uint256"
        },
        {
          "indexed": true,
          "internalType": "uint256",
          "name": "policyId",
          "type": "uint256"
        },
        {
          "indexed": false,
          "internalType": "bytes32",
          "name": "claimHash",
          "type": "bytes32"
        },
        {
          "indexed": false,
          "internalType": "uint256",
          "name": "amount",
          "type": "uint256"
        },
        {
          "indexed": false,
          "internalType": "string",
          "name": "status",
          "type": "string"
        }
      ],
      "name": "ClaimSubmitted",
      "type": "event"
    },
    {
      "anonymous": false,
      "inputs": [
        {
          "indexed": true,
          "internalType": "uint256",
          "name": "policyId",
          "type": "uint256"
        },
        {
          "indexed": true,
          "internalType": "bytes32",
          "name": "policyHash",
          "type": "bytes32"
        },
        {
          "indexed": false,
          "internalType": "string",
          "name": "policyNumber",
          "type": "string"
        },
        {
          "indexed": false,
          "internalType": "address",
          "name": "holder",
          "type": "address"
        },
        {
          "indexed": false,
          "internalType": "uint256",
          "name": "premium",
          "type": "uint256"
        },
        {
          "indexed": false,
          "internalType": "uint256",
          "name": "coverageAmount",
          "type": "uint256"
        }
      ],
      "name": "PolicyRegistered",
      "type": "event"
    },
    {
      "anonymous": false,
      "inputs": [
        {
          "indexed": true,
          "internalType": "uint256",
          "name": "policyId",
          "type": "uint256"
        },
        {
          "indexed": true,
          "internalType": "bytes32",
          "name": "paymentHash",
          "type": "bytes32"
        },
        {
          "indexed": false,
          "internalType": "uint256",
          "name": "amount",
          "type": "uint256"
        },
        {
          "indexed": false,
          "internalType": "uint256",
          "name": "timestamp",
          "type": "uint256"
        }
      ],
      "name": "PremiumPaid",
      "type": "event"
    },
    {
      "inputs": [],
      "name": "claimCounter",
      "outputs": [
        {
          "internalType": "uint256",
          "name": "",
          "type": "uint256"
        }
      ],
      "stateMutability": "view",
      "type": "function"
    },
    {
      "inputs": [
        {
          "internalType": "uint256",
          "name": "",
          "type": "uint256"
        }
      ],
      "name": "claims",
      "outputs": [
        {
          "internalType": "uint256",
          "name": "id",
          "type": "uint256"
        },
        {
          "internalType": "uint256",
          "name": "policyId",
          "type": "uint256"
        },
        {
          "internalType": "bytes32",
          "name": "claimHash",
          "type": "bytes32"
        },
        {
          "internalType": "uint256",
          "name": "amount",
          "type": "uint256"
        },
        {
          "internalType": "string",
          "name": "status",
          "type": "string"
        },
        {
          "internalType": "uint256",
          "name": "submittedAt",
          "type": "uint256"
        },
        {
          "internalType": "uint256",
          "name": "processedAt",
          "type": "uint256"
        }
      ],
      "stateMutability": "view",
      "type": "function"
    },
    {
      "inputs": [
        {
          "internalType": "uint256",
          "name": "_policyId",
          "type": "uint256"
        }
      ],
      "name": "deactivatePolicy",
      "outputs": [],
      "stateMutability": "nonpayable",
      "type": "function"
    },
    {
      "inputs": [
        {
          "internalType": "uint256",
          "name": "_claimId",
          "type": "uint256"
        }
      ],
      "name": "getClaimStatus",
      "outputs": [
        {
          "internalType": "string",
          "name": "status",
          "type": "string"
        },
        {
          "internalType": "uint256",
          "name": "policyId",
          "type": "uint256"
        },
        {
          "internalType": "uint256",
          "name": "amount",
          "type": "uint256"
        },
        {
          "internalType": "string",
          "name": "decision",
          "type": "string"
        }
      ],
      "stateMutability": "view",
      "type": "function"
    },
    {
      "inputs": [
        {
          "internalType": "uint256",
          "name": "_policyId",
          "type": "uint256"
        }
      ],
      "name": "getPolicyClaims",
      "outputs": [
        {
          "internalType": "uint256[]",
          "name": "",
          "type": "uint256[]"
        }
      ],
      "stateMutability": "view",
      "type": "function"
    },
    {
      "inputs": [
        {
          "internalType": "uint256",
          "name": "_policyId",
          "type": "uint256"
        }
      ],
      "name": "getPolicyDetails",
      "outputs": [
        {
          "internalType": "string",
          "name": "policyNumber",
          "type": "string"
        },
        {
          "internalType": "uint256",
          "name": "premium",
          "type": "uint256"
        },
        {
          "internalType": "uint256",
          "name": "coverageAmount",
          "type": "uint256"
        },
        {
          "internalType": "bool",
          "name": "isActive",
          "type": "bool"
        }
      ],
      "stateMutability": "view",
      "type": "function"
    },
    {
      "inputs": [
        {
          "internalType": "uint256",
          "name": "_policyId",
          "type": "uint256"
        }
      ],
      "name": "getPolicyPayments",
      "outputs": [
        {
          "components": [
            {
              "internalType": "uint256",
              "name": "policyId",
              "type": "uint256"
            },
            {
              "internalType": "bytes32",
              "name": "paymentHash",
              "type": "bytes32"
            },
            {
              "internalType": "uint256",
              "name": "amount",
              "type": "uint256"
            },
            {
              "internalType": "uint256",
              "name": "paidAt",
              "type": "uint256"
            }
          ],
          "internalType": "struct InsuranceRegistry.PremiumPayment[]",
          "name": "",
          "type": "tuple[]"
        }
      ],
      "stateMutability": "view",
      "type": "function"
    },
    {
      "inputs": [
        {
          "internalType": "uint256",
          "name": "",
          "type": "uint256"
        }
      ],
      "name": "policies",
      "outputs": [
        {
          "internalType": "uint256",
          "name": "id",
          "type": "uint256"
        },
        {
          "internalType": "bytes32",
          "name": "policyHash",
          "type": "bytes32"
        },
        {
          "internalType": "string",
          "name": "policyNumber",
          "type": "string"
        },
        {
          "internalType": "address",
          "name": "holder",
          "type": "address"
        },
        {
          "internalType": "uint256",
          "name": "premium",
          "type": "uint256"
        },
        {
          "internalType": "uint256",
          "name": "coverageAmount",
          "type": "uint256"
        },
        {
          "internalType": "uint256",
          "name": "registeredAt",
          "type": "uint256"
        },
        {
          "internalType": "bool",
          "name": "isActive",
          "type": "bool"
        }
      ],
      "stateMutability": "view",
      "type": "function"
    },
    {
      "inputs": [
        {
          "internalType": "uint256",
          "name": "",
          "type": "uint256"
        },
        {
          "internalType": "uint256",
          "name": "",
          "type": "uint256"
        }
      ],
      "name": "policyClaims",
      "outputs": [
        {
          "internalType": "uint256",
          "name": "",
          "type": "uint256"
        }
      ],
      "stateMutability": "view",
      "type": "function"
    },
    {
      "inputs": [],
      "name": "policyCounter",
      "outputs": [
        {
          "internalType": "uint256",
          "name": "",
          "type": "uint256"
        }
      ],
      "stateMutability": "view",
      "type": "function"
    },
    {
      "inputs": [
        {
          "internalType": "bytes32",
          "name": "",
          "type": "bytes32"
        }
      ],
      "name": "policyHashToId",
      "outputs": [
        {
          "internalType": "uint256",
          "name": "",
          "type": "uint256"
        }
      ],
      "stateMutability": "view",
      "type": "function"
    },
    {
      "inputs": [
        {
          "internalType": "uint256",
          "name": "",
          "type": "uint256"
        },
        {
          "internalType": "uint256",
          "name": "",
          "type": "uint256"
        }
      ],
      "name": "policyPayments",
      "outputs": [
        {
          "internalType": "uint256",
          "name": "policyId",
          "type": "uint256"
        },
        {
          "internalType": "bytes32",
          "name": "paymentHash",
          "type": "bytes32"
        },
        {
          "internalType": "uint256",
          "name": "amount",
          "type": "uint256"
        },
        {
          "internalType": "uint256",
          "name": "paidAt",
          "type": "uint256"
        }
      ],
      "stateMutability": "view",
      "type": "function"
    },
    {
      "inputs": [
        {
          "internalType": "uint256",
          "name": "_policyId",
          "type": "uint256"
        },
        {
          "internalType": "bytes32",
          "name": "_claimHash",
          "type": "bytes32"
        },
        {
          "internalType": "uint256",
          "name": "_amount",
          "type": "uint256"
        },
        {
          "internalType": "string",
          "name": "_status",
          "type": "string"
        }
      ],
      "name": "recordClaim",
      "outputs": [
        {
          "internalType": "uint256",
          "name": "",
          "type": "uint256"
        }
      ],
      "stateMutability": "nonpayable",
      "type": "function"
    },
    {
      "inputs": [
        {
          "internalType": "uint256",
          "name": "_policyId",
          "type": "uint256"
        },
        {
          "internalType": "bytes32",
          "name": "_paymentHash",
          "type": "bytes32"
        },
        {
          "internalType": "uint256",
          "name": "_amount",
          "type": "uint256"
        }
      ],
      "name": "recordPremiumPayment",
      "outputs": [],
      "stateMutability": "nonpayable",
      "type": "function"
    },
    {
      "inputs": [
        {
          "internalType": "bytes32",
          "name": "_policyHash",
          "type": "bytes32"
        },
        {
          "internalType": "string",
          "name": "_policyNumber",
          "type": "string"
        },
        {
          "internalType": "uint256",
          "name": "_premium",
          "type": "uint256"
        },
        {
          "internalType": "uint256",
          "name": "_coverageAmount",
          "type": "uint256"
        }
      ],
      "name": "registerPolicy",
      "outputs": [
        {
          "internalType": "uint256",
          "name": "",
          "type": "uint256"
        }
      ],
      "stateMutability": "nonpayable",
      "type": "function"
    },
    {
      "inputs": [
        {
          "internalType": "uint256",
          "name": "_claimId",
          "type": "uint256"
        },
        {
          "internalType": "string",
          "name": "_status",
          "type": "string"
        }
      ],
      "name": "updateClaimStatus",
      "outputs": [],
      "stateMutability": "nonpayable",
      "type": "function"
    },
    {
      "inputs": [
        {
          "internalType": "bytes32",
          "name": "_policyHash",
          "type": "bytes32"
        }
      ],
      "name": "verifyPolicy",
      "outputs": [
        {
          "internalType": "bool",
          "name": "exists",
          "type": "bool"
        },
        {
          "internalType": "uint256",
          "name": "policyId",
          "type": "uint256"
        },
        {
          "internalType": "string",
          "name": "policyNumber",
          "type": "string"
        },
        {
          "internalType": "uint256",
          "name": "premium",
          "type": "uint256"
        }
      ],
      "stateMutability": "view",
      "type": "function"
    }
  ],
  "bytecode": "0x608060405234801561001057600080fd5b50611692806100206000396000f3fe608060405234801561001057600080fd5b506004361061010b5760003560e01c80639a0fbdeb116100a2578063bc25243911610071578063bc25243914610269578063cc0380101461028c578063d3e89483146102af578063d52c1bea146102d6578063eb4a4645146102df57600080fd5b80639a0fbdeb146101fd578063a888c2cd14610210578063afd2ab7814610236578063b63640511461024957600080fd5b8063560eb394116100de578063560eb394146101a257806362d5b5b4146101b5578063833a0ce9146101d5578063873b2f0d146101e857600080fd5b8063204883f91461011057806336dbd2f9146101485780633e2045ea1461016b5780634efa8f171461018b575b600080fd5b61012361011e36600461101a565b6102f2565b6040805194855260208501939093529183015260608201526080015b60405180910390f35b61015b61015636600461103c565b610338565b60405161013f949392919061109b565b61017e61017936600461103c565b6104e6565b60405161013f91906110d7565b61019460015481565b60405190815260200161013f565b6101946101b036600461101a565b610579565b6101946101c336600461103c565b60036020526000908152604090205481565b6101946101e33660046111be565b6105aa565b6101fb6101f6366004611215565b610749565b005b61019461020b36600461125c565b61080a565b61022361021e36600461103c565b6109f1565b60405161013f97969594939291906112b6565b6101fb6102443660046112f7565b610ab6565b61025c61025736600461103c565b610be7565b60405161013f9190611323565b61027c61027736600461103c565b610ca7565b60405161013f9493929190611387565b61029f61029a36600461103c565b610da4565b60405161013f94939291906113b9565b6102c26102bd36600461103c565b610ea5565b60405161013f9897969594939291906113ea565b61019460005481565b6101fb6102ed36600461103c565b610f7e565b6004602052816000526040600020818154811061030e57600080fd5b60009182526020909120600490910201805460018201546002830154600390930154919450925084565b606060008060608460008111801561035257506001548111155b61039a5760405162461bcd60e51b815260206004820152601460248201527310db185a5b48191bd95cc81b9bdd08195e1a5cdd60621b60448201526064015b60405180910390fd5b60008681526005602052604090206001810154600382015460048301805490929190839081906103c990611441565b80601f01602080910402602001604051908101604052809291908181526020018280546103f590611441565b80156104425780601f1061041757610100808354040283529160200191610442565b820191906000526020600020905b81548152906001019060200180831161042557829003601f168201915b5050505050935080805461045590611441565b80601f016020809104026020016040519081016040528092919081815260200182805461048190611441565b80156104ce5780601f106104a3576101008083540402835291602001916104ce565b820191906000526020600020905b8154815290600101906020018083116104b157829003601f168201915b50505050509050955095509550955050509193509193565b6060816000811180156104fb57506000548111155b6105175760405162461bcd60e51b815260040161039190611475565b6000838152600660209081526040918290208054835181840281018401909452808452909183018282801561056b57602002820191906000526020600020905b815481526020019060010190808311610557575b505050505091505b50919050565b6006602052816000526040600020818154811061059557600080fd5b90600052602060002001600091509150505481565b600084815260036020526040812054156106065760405162461bcd60e51b815260206004820152601960248201527f506f6c69637920616c72656164792072656769737465726564000000000000006044820152606401610391565b600080549080610615836114a4565b909155505060008054604080516101008101825282815260208082018a81528284018a8152336060850152608084018a905260a084018990524260c0850152600160e0850181905286885260029384905294909620835181559051938101939093559351929390929082019061068b908261151a565b506060820151600382810180546001600160a01b0319166001600160a01b03909316929092179091556080830151600483015560a0830151600583015560c0830151600683015560e0909201516007909101805460ff1916911515919091179055600087815260209190915260409081902082905551869082907fadab3ff86c1f985ca1fb8aec6e1ae8cf3bce7049920d38cc603878a953a22d8c9061073890899033908a908a906115da565b60405180910390a395945050505050565b8160008111801561075c57506001548111155b61079f5760405162461bcd60e51b815260206004820152601460248201527310db185a5b48191bd95cc81b9bdd08195e1a5cdd60621b6044820152606401610391565b6000838152600560205260409020600481016107bb848261151a565b504281600601819055508060010154847f3d0ce68da79acfdc817772063ff8ef4f64913919cbd1acc8dfda348b4e5a3b1e85426040516107fc929190611612565b60405180910390a350505050565b60008460008111801561081f57506000548111155b61083b5760405162461bcd60e51b815260040161039190611475565b6000868152600260205260409020600781015460ff166108945760405162461bcd60e51b8152602060048201526014602482015273506f6c696379206973206e6f742061637469766560601b6044820152606401610391565b80600501548511156108e15760405162461bcd60e51b8152602060048201526016602482015275436c61696d206578636565647320636f76657261676560501b6044820152606401610391565b600180549060006108f1836114a4565b9091555050600180546040805160e08101825282815260208082018c81528284018c8152606084018c8152608085018c81524260a0870152600060c087018190528881526005909552959093208451815591519682019690965594516002860155516003850155905191929091600482019061096d908261151a565b5060a0820151600582015560c09091015160069182015560008981526020918252604080822080546001810182559083529290912090910182905551889082907f7dd54a07e00063f917c6cd41e9b04b13349aa9e0f000809b6b6efe090835f08f906109de908b908b908b90611634565b60405180910390a3979650505050505050565b600560205260009081526040902080546001820154600283015460038401546004850180549495939492939192610a2790611441565b80601f0160208091040260200160405190810160405280929190818152602001828054610a5390611441565b8015610aa05780601f10610a7557610100808354040283529160200191610aa0565b820191906000526020600020905b815481529060010190602001808311610a8357829003601f168201915b5050505050908060050154908060060154905087565b82600081118015610ac957506000548111155b610ae55760405162461bcd60e51b815260040161039190611475565b6000848152600260205260409020600781015460ff16610b3e5760405162461bcd60e51b8152602060048201526014602482015273506f6c696379206973206e6f742061637469766560601b6044820152606401610391565b604080516080810182528681526020808201878152828401878152426060850181815260008c81526004808752888220805460018082018355918452928890208951939092029091019182559451948101949094559151600284015590516003909201919091558351878152918201529091869188917f096f5798cf505fd2f1723fd5b1f91147d50635a2d3eb639368f1b5d350ff3f33910160405180910390a3505050505050565b606081600081118015610bfc57506000548111155b610c185760405162461bcd60e51b815260040161039190611475565b600083815260046020908152604080832080548251818502810185019093528083529193909284015b82821015610c9b578382906000526020600020906004020160405180608001604052908160008201548152602001600182015481526020016002820154815260200160038201548152505081526020019060010190610c41565b50505050915050919050565b60008181526003602052604081205481906060908290808203610ce3575050604080516020810190915260008082529350839250905081610d9d565b6000600260008381526020019081526020016000209050600182826002018360040154818054610d1290611441565b80601f0160208091040260200160405190810160405280929190818152602001828054610d3e90611441565b8015610d8b5780601f10610d6057610100808354040283529160200191610d8b565b820191906000526020600020905b815481529060010190602001808311610d6e57829003601f168201915b50505050509150955095509550955050505b9193509193565b6060600080600084600081118015610dbe57506000548111155b610dda5760405162461bcd60e51b815260040161039190611475565b600086815260026020819052604090912060048101546005820154600783015493830180549394909360ff909116908490610e1490611441565b80601f0160208091040260200160405190810160405280929190818152602001828054610e4090611441565b8015610e8d5780601f10610e6257610100808354040283529160200191610e8d565b820191906000526020600020905b815481529060010190602001808311610e7057829003601f168201915b50505050509350955095509550955050509193509193565b600260208190526000918252604090912080546001820154928201805491939291610ecf90611441565b80601f0160208091040260200160405190810160405280929190818152602001828054610efb90611441565b8015610f485780601f10610f1d57610100808354040283529160200191610f48565b820191906000526020600020905b815481529060010190602001808311610f2b57829003601f168201915b505050600384015460048501546005860154600687015460079097015495966001600160a01b0390931695919450925060ff1688565b80600081118015610f9157506000548111155b610fad5760405162461bcd60e51b815260040161039190611475565b600082815260026020526040902060038101546001600160a01b0316331461100b5760405162461bcd60e51b81526020600482015260116024820152702737ba103837b634b1bc903437b63232b960791b6044820152606401610391565b600701805460ff191690555050565b6000806040838503121561102d57600080fd5b50508035926020909101359150565b60006020828403121561104e57600080fd5b5035919050565b6000815180845260005b8181101561107b5760208185018101518683018201520161105f565b506000602082860101526020601f19601f83011685010191505092915050565b6080815260006110ae6080830187611055565b85602084015284604084015282810360608401526110cc8185611055565b979650505050505050565b6020808252825182820181905260009190848201906040850190845b8181101561110f578351835292840192918401916001016110f3565b50909695505050505050565b634e487b7160e01b600052604160045260246000fd5b600082601f83011261114257600080fd5b813567ffffffffffffffff8082111561115d5761115d61111b565b604051601f8301601f19908116603f011681019082821181831017156111855761118561111b565b8160405283815286602085880101111561119e57600080fd5b836020870160208301376000602085830101528094505050505092915050565b600080600080608085870312156111d457600080fd5b84359350602085013567ffffffffffffffff8111156111f257600080fd5b6111fe87828801611131565b949794965050505060408301359260600135919050565b6000806040838503121561122857600080fd5b82359150602083013567ffffffffffffffff81111561124657600080fd5b61125285828601611131565b9150509250929050565b6000806000806080858703121561127257600080fd5b843593506020850135925060408501359150606085013567ffffffffffffffff81111561129e57600080fd5b6112aa87828801611131565b91505092959194509250565b87815286602082015285604082015284606082015260e0608082015260006112e160e0830186611055565b60a08301949094525060c0015295945050505050565b60008060006060848603121561130c57600080fd5b505081359360208301359350604090920135919050565b602080825282518282018190526000919060409081850190868401855b8281101561137a57815180518552868101518786015285810151868601526060908101519085015260809093019290850190600101611340565b5091979650505050505050565b84151581528360208201526080604082015260006113a86080830185611055565b905082606083015295945050505050565b6080815260006113cc6080830187611055565b60208301959095525060408101929092521515606090910152919050565b60006101008a835289602084015280604084015261140a8184018a611055565b6001600160a01b039890981660608401525050608081019490945260a084019290925260c0830152151560e0909101529392505050565b600181811c9082168061145557607f821691505b60208210810361057357634e487b7160e01b600052602260045260246000fd5b602080825260159082015274141bdb1a58de48191bd95cc81b9bdd08195e1a5cdd605a1b604082015260600190565b6000600182016114c457634e487b7160e01b600052601160045260246000fd5b5060010190565b601f82111561151557600081815260208120601f850160051c810160208610156114f25750805b601f850160051c820191505b81811015611511578281556001016114fe565b5050505b505050565b815167ffffffffffffffff8111156115345761153461111b565b611548816115428454611441565b846114cb565b602080601f83116001811461157d57600084156115655750858301515b600019600386901b1c1916600185901b178555611511565b600085815260208120601f198616915b828110156115ac5788860151825594840194600190910190840161158d565b50858210156115ca5787850151600019600388901b60f8161c191681555b5050505050600190811b01905550565b6080815260006115ed6080830187611055565b6001600160a01b03959095166020830152506040810192909252606090910152919050565b6040815260006116256040830185611055565b90508260208301529392505050565b8381528260208201526060604082015260006116536060830184611055565b9594505050505056fea264697066735822122026d3302f772e54eee03e03fbb57c90a7d486d9c704727d2a228b43aa56f78fce64736f6c63430008130033",
  "linkReferences": {},
  "deployedLinkReferences": {}
}